:020000040800F2
:100000005804002005010008850400083703000893
:100010003B0300085D010008BB0A00080000000067
:100020000000000000000000000000003D06000885
:1000300061010008000000004505000829070008CC
:100040001F0100081F0100081F0100081F01000810
:100050001F0100081F010008C10100081F0100085E
:100060001F0100081F0100081F0100081F010008F0
:100070001F0100081F0100081F0100081F010008E0
:100080001F0100081F0100081F0100081F010008D0
:100090001F0100081F0100081F0100081F010008C0
:1000A0001F0100081F0100081F0100081F010008B0
:1000B0001F0100081F0100081F0100081F010008A0
:1000C0001F0100081F0100081F0100081F01000890
:1000D0001F010008590800081F0100081F0100083F
:1000E0001F0100081F0100081F010008DFF810D0E1
:1000F00000F022F800480047150B0008AFF300801D
:10010000580400200648804706480047FEE7FEE7FF
:10011000FEE7FEE7FEE7FEE7FEE7FEE7FEE7FEE7B7
:10012000A1070008ED000008421C10F8011B00297F
:10013000FBD1801A70470000064C074D06E0E068CE
:1001400040F0010394E8070098471034AC42F6D31E
:10015000FFF7D0FF640B0008840B000800BFFEE728
:10016000704701B506E04FF47A7000F015F800987A
:10017000401E009000980028F5D108BD01B506E0AA
:100180004FF47A70FFF7EDFF0098401E0090009842
:100190000028F5D108BD000001B5084900980860A5
:1001A0004FF0E020006940F001004FF0E0210861CD
:1001B00000BF024800680028FBD108BD4C000020A9
:1001C00010B5012000F014F828B10548006880F04F
:1001D000010003490860012000F004F810BD000090
:1001E0000C0C0140014908607047000014040140F4
:1001F000014600200022074B1B6803EA0102054B61
:1002000014331B680B4013B10AB1012000E0002039
:1002100070470000000401402DE9F041024600252E
:100220000026002000230024002791F803C00CF0D2
:100230000F0591F803C00CF0100CBCF1000F03D0B7
:1002400091F802C04CEA050591F800C0BCF1000F1E
:1002500031D0146800202BE04FF0010C0CFA00F3B1
:10026000B1F800C00CEA03069E4220D183004FF093
:100270000F0C0CFA03F7BC4305FA03FC4CEA040428
:1002800091F803C0BCF1280F06D14FF0010C0CFA15
:1002900000FCC2F814C00AE091F803C0BCF1480F9A
:1002A00005D14FF0010C0CFA00FCC2F810C0401C44
:1002B0000828D1D31460B1F800C0BCF1FF0F34DDC1
:1002C000546800202EE000F1080C4FF0010808FAF5
:1002D0000CF3B1F800C00CEA03069E4221D1830062
:1002E0004FF00F0C0CFA03F7BC4305FA03FC4CEA81
:1002F000040491F803C0BCF1280F05D100F1080CEB
:1003000008FA0CF8C2F8148091F803C0BCF1480F49
:1003100007D100F1080C4FF0010808FA0CF8C2F8F8
:100320001080401C0828CED35460BDE8F0814161A4
:1003300070470161704700BFFEE700BFFEE70000A5
:1003400010B520482049097810F8210020B1022179
:100350001E48FFF7EEFF03E002211C48FFF7E7FF0E
:1003600018481949097800EB8100407820B1042130
:100370001648FFF7DEFF03E004211448FFF7D7FF1C
:1003800010481149097800EB8100807820B10821DC
:100390000E48FFF7CEFF03E008210C48FFF7C7FF28
:1003A00008480949097800EB8100C07820B1102184
:1003B0000648FFF7BEFF03E010210448FFF7B7FF30
:1003C00010BD000028000020480000200008014067
:1003D00070B504460D4610E0641EFFF7B1FF0948F2
:1003E0000078401C0749087008460078082801D1A9
:1003F000002008702846FFF7CFFE002CECD100F05B
:1004000003F870BD4800002010B502210748FFF72F
:100410008EFF04210548FFF78AFF08210348FFF7F4
:1004200086FF10210148FFF782FF10BD0008014040
:1004300008B50121042000F087F810208DF8030092
:1004400003208DF802000220ADF8000069460C4838
:10045000FFF7E2FE0420ADF8000069460848FFF708
:10046000DBFE0820ADF8000069460548FFF7D4FE22
:100470001020ADF8000069460148FFF7CDFE08BD29
:10048000000801407047000008B54FF4A06000F07C
:100490004FF825208DF8000001208DF801008DF81F
:1004A00002008DF80300684600F00AF8012240F2CD
:1004B0002551024800F067FA08BD000000380140ED
:1004C00070B5002100230F22C47804B3154C2468B2
:1004D00004F4E064C4F5E064210AC1F10403CA40F5
:1004E000447804FA03F184781440214309010E4C46
:1004F0000678A155047804F01F050124AC40057866
:100500006D11AD0005F1E025C5F8004109E0047862
:1005100004F01F050124AC40044D0678761145F81F
:10052000264070BD0CED00E000E400E080E100E05A
:1005300002490143024A1160704700000000FA05B9
:100540000CED00E07047000029B1064A92690243B1
:10055000044B9A6104E0034A92698243014B9A6119
:10056000704700000010024030B500210022002436
:1005700000232D4D6D6805F00C0121B1042905D033
:10058000082923D105E0294D056022E0274D0560AB
:100590001FE0254D6D6805F47012234D6D6805F45C
:1005A0008034022505EB92421CB9214D554305606C
:1005B0000BE01D4D6D6805F400351DB11C4D554314
:1005C000056002E0194D5543056002E0174D0560D6
:1005D00000BF00BF144D6D6805F0F0010909154D0D
:1005E0006B5C0568DD4045600F4D6D6805F4E061AA
:1005F000090A104D6B5C4568DD4085600A4D6D68E9
:1006000005F46051C90A0B4D6B5C4568DD40C5605F
:10061000054D6D6805F44041890B074D6B5CC5685D
:10062000B5FBF3F5056130BD0010024000127A0001
:1006300000093D001400002024000020704710B580
:1006400000F002F810BD00000CB5002001900090F1
:100650003348006840F480303149086000BF3048BA
:10066000006800F4003000900198401C0190009850
:1006700018B90198B0F5A06FF1D12948006800F4CD
:10068000003010B10120009001E00020009000989F
:10069000012843D12348006840F010002149086038
:1006A0000846006820F0030008600846006840F033
:1006B000020008601A4840681949486008464068C6
:1006C00048600846406840F48060486008464068DA
:1006D00020F47C1048600846406840F4E810486008
:1006E0000846006840F08070086000BF0C48006851
:1006F00000F000700028F9D00948406820F003009D
:10070000074948600846406840F00200486000BF62
:100710000348406800F00C000828F9D10CBD000027
:10072000001002400020024010B54FF0E0200069A8
:1007300000F4803008B100F063F810BD30B5144803
:100740000068144AB0FBF2F1B1F1807F00D31DE0E4
:1007500021F07F40401E4FF0E022506150170F22E1
:10076000002807DA13071D0E0B4B00F00F04241F9F
:100770001D5503E013071C0E084B1C5400BF00203E
:100780004FF0E02290610720106100BF30BD0000F3
:100790000000002040420F0018ED00E000E400E0FF
:1007A00010B51348006840F0010011490860084680
:1007B0004068104908400E494860084600680E49E4
:1007C00008400B4908600846006820F48020086053
:1007D0000846406820F4FE0048604FF41F0088601F
:1007E000FFF72DFF4FF000600449086010BD0000C6
:1007F000001002400000FFF8FFFFF6FE08ED00E0E9
:1008000010B51248006820B110480068401E0F491A
:1008100008600F48006850B10D480068401E0C4940
:1008200008600846006810B90A4800688047074811
:10083000006850B90648006838B94FF0E0200069F8
:1008400020F001004FF0E021086110BD4C000020B5
:10085000500000205400002010B540F225510648F9
:1008600000F067F838B1044800F01EF9C4B2214620
:10087000014800F01EF910BD0038014021B1828905
:1008800042F40052828104E082894DF6FF731A40DF
:100890008281704700B585B001210420FFF754FE26
:1008A00001218803FFF750FE4FF40070ADF81000EF
:1008B00018208DF8130003208DF8120004A91448A5
:1008C000FFF7AAFC4FF48060ADF8100004208DF80B
:1008D000130004A90E48FFF79FFC4FF4E13000908D
:1008E0000020ADF80400ADF80600ADF80800ADF842
:1008F0000C000C20ADF80A006946064800F068F8C4
:10090000FFF7C2FD01210348FFF7B8FF05B000BDA6
:10091000000801400038014002460020B1F5007F88
:1009200000D100BF13880B400BB1012000E0002074
:10093000704770B50246002400230025002040F6D1
:100940006A16B14200D100BFC1F3421501F01F0386
:10095000012606FA03F3012D02D19689334006E001
:10096000022D02D1168A334001E0968A33400C12E0
:10097000012606FA04F41688344013B10CB10120A4
:1009800000E0002070BDF0B50346002400260025DD
:10099000002040F66A17B94200D100BF1846C1F3E3
:1009A000421401F01F06012707FA06F5012C01D1B8
:1009B0000C3004E0022C01D1103000E014301AB1E8
:1009C00007682F43076002E00768AF430760F0BD88
:1009D0002DE9F04786B005460E460024A24600BF2A
:1009E000A1460027B08900B100BF2F462C8A4CF6E3
:1009F000FF700440F08804432C82AC894EF6F3105B
:100A00000440B08831890843718908430443AC81AC
:100A1000AC8A4FF6FF400440B0890443AC8201A881
:100A2000FFF7A2FD1F48874202D1DDF810A001E0C8
:100A3000DDF80CA0A88900F4004040B10AEBCA0020
:100A400000EB0A1031684900B0FBF1F807E00AEB4F
:100A5000CA0000EB0A1031688900B0FBF1F864208D
:100A6000B8FBF0F004012009642101FB1089A8897A
:100A700000F4004040B1322000EBC900B0FBF1F0BF
:100A800000F00700044308E0322000EB0910642165
:100A9000B0FBF1F000F00F0004432C8106B0BDE87C
:100AA000F08700000038014001468888C0F3080044
:100AB0007047C1F308028280704700BFFEE7000064
:100AC00070B506460C4600250BE0615D0848FFF74F
:100AD000F0FF00BF80210648FFF71EFF0028F9D075
:100AE0006D1C2046FFF720FBA842EED870BD000029
:100AF0000038014002E008C8121F08C1002AFAD1DC
:100B000070477047002001E001C1121F002AFBD18D
:100B100070470000FFF712FEFFF7BCFEFFF788FCEE
:100B20000CE007A10E48FFF7CBFF40F6B8314FF4B9
:100B30007A70FFF74DFC0120FFF720FBF1E7000082
:100B4000D5E2CAC7D2BBB8F6B4AEBFDAD6D0B6CFFC
:100B5000BDD3CAD5BBD8CFD4CAB5D1E90A000000ED
:100B600000380140840B00080000002058000000FD
:100B7000F40A0008DC0B0008580000200004000004
:100B8000040B000800A24A0400000000000000005E
:100B90000102030406070809000000000102030423
:100BA0000102030406070809020406080100000008
:100BB000010001000000010000010100000100002F
:100BC0000001000100000001010000010000000020
:0C0BD00000000000000000000000000019
:04000005080000ED02
:00000001FF
