:020000040800F2
:10000000804C002021020008051300089907000811
:10001000011300081D0300085B1600080000000023
:10002000000000000000000000000000890100083E
:100030002103000800000000CD0100081115000890
:100040003B0200083B0200083B0200083B0200089C
:100050003B0200083B0200083B0200083B0200088C
:100060003B0200083B0200083B0200083B0200087C
:100070003B0200083B0200083B0200083B0200086C
:100080003B0200083B0200083B0200083B0200085C
:100090003B0200083B0200083B0200083F03000847
:1000A0003B0200083B0200083B0200083B0200083C
:1000B0003B0200083B0200083B0200083B0200082C
:1000C0003B0200083B0200083B0200083B0200081C
:1000D0003B020008751500083B0200083B020008BF
:1000E000230300083B0200083B02000800F002F86E
:1000F00000F03AF80AA090E8000C82448344AAF188
:100100000107DA4501D100F02FF8AFF2090EBAE885
:100110000F0013F0010F18BFFB1A43F0010318473B
:100120004C6800006C680000103A24BF78C878C1A1
:10013000FAD8520724BF30C830C144BF04680C60ED
:10014000704700000023002400250026103A28BF35
:1001500078C1FBD8520728BF30C148BF0B60704739
:100160001FB51FBD10B510BD00F0A6F81146FFF772
:10017000F7FF01F067FB00F0C4F803B4FFF7F2FFEC
:1001800003BC01F06CFA0000224B19680868B0E863
:10019000F00F80F30988BFF36F8F4FF0000080F3FA
:1001A00011884EF00D0E70470000000006480068F0
:1001B000006880F3088862B661B6BFF34F8FBFF363
:1001C0006F8F00DF00BF00BF08ED00E0EFF3098094
:1001D000BFF36F8F0F4B1A6820E9F00F106008B55E
:1001E0004FF0BF0080F31188BFF34F8FBFF36F8FC5
:1001F00001F0FAFE4FF0000080F31188BDE80840DE
:1002000019680868B0E8F00F80F30988BFF36F8FB2
:10021000704700BF2C000020EFF3058070470000FE
:100220000948804709480047FEE7FEE7FEE7FEE78A
:10023000FEE7FEE7FEE7FEE7FEE7FEE704480549C6
:10024000054A064B7047000015150008ED00000830
:1002500080460020804C00208048002080480020FC
:1002600070474FF0000200B5134694469646203979
:1002700022BFA0E80C50A0E80C50B1F12001BFF45F
:10028000F7AF090728BFA0E80C5048BF0CC05DF8C5
:1002900004EB890028BF40F8042B08BF704748BF13
:1002A00020F8022B11F0804F18BF00F8012B704787
:1002B0007047704770477047754600F02BF8AE46A0
:1002C00005006946534620F00700854618B020B562
:1002D000FFF7B4FFBDE820404FF000064FF00007E5
:1002E0004FF000084FF0000B21F00701AC46ACE8DE
:1002F000C009ACE8C009ACE8C009ACE8C0098D464B
:10030000704710B50446AFF300802046BDE81040AA
:10031000FFF733BF004870471C46002000BFFEE7D0
:10032000704710B54FF4806000F040F830B1052000
:1003300001F006FD4FF4806000F032F810BD10B5FA
:10034000402000F033F830B1012001F0F9FC4020EA
:1003500000F026F823E0802000F028F830B10220D9
:1003600001F0EEFC802000F01BF818E04FF48070E4
:1003700000F01CF838B1032001F0E2FC4FF480706B
:1003800000F00EF80BE04FF4007000F00FF830B101
:10039000042001F0D5FC4FF4007000F001F810BD0E
:1003A0000149086070470000140401400146002024
:1003B0000022074B1B6803EA0102054B14331B683C
:1003C0000B4013B10AB1012000E00020704700008B
:1003D00000040140002123498279002A3AD00A46CC
:1003E000126803689A430B461A600A1D1268036874
:1003F0009A430B1D1A60027911440A6803681A4374
:100400000A60184A0832126803689A43154B083389
:100410001A601A1D126803689A43124B0C331A6053
:100420004279102A0ED11A1F126803681A430D4B25
:1004300008331A601A1D126803681A43094B0C33FB
:100440001A600DE00749427911440A6803681A43AB
:100450000A6005E0027911440A6803689A430A6059
:1004600070470000000401400EB50121052000F096
:10047000B7FF0121112000F0B3FF00F044FF40203E
:10048000ADF8080004208DF80B0002A9454800F0E3
:10049000ABF80621002000F087F8402000900020F3
:1004A0008DF8040008208DF8050001208DF8060065
:1004B0006846FFF78FFF8020ADF8080004208DF814
:1004C0000B0002A9374800F08FF80721002000F048
:1004D0006BF88020009000208DF804000C208DF82F
:1004E000050001208DF806006846FFF773FF4FF402
:1004F0008070ADF8080004208DF80B0002A929488F
:1005000000F072F80821002000F04EF84FF48070DF
:10051000009000208DF804000C208DF805000120CB
:100520008DF806006846FFF755FF4FF40070ADF8F0
:10053000080004208DF80B0002A91A4800F054F8B6
:100540000921022000F030F84FF4007000900020E4
:100550008DF804000C208DF8050001208DF80600B0
:100560006846FFF737FF4FF48060ADF808000420BD
:100570008DF80B0002A90B4800F036F80A21002084
:1005800000F012F84FF48060009000208DF8040015
:100590000C208DF8050001208DF806006846FFF755
:1005A00019FF0EBD0008014030B500228B071C0F5B
:1005B0000F2303FA04F20B4B8C1053F824309343AF
:1005C000084C8D1044F8253023468C1053F8243005
:1005D0008C07240F00FA04F42343024C8D1044F8D6
:1005E000253030BD080001402DE9F04102460025CC
:1005F0000026002000230024002791F803C00CF0FF
:100600000F0591F803C00CF0100CBCF1000F03D0E3
:1006100091F802C04CEA050591F800C0BCF1000F4A
:1006200031D0146800202BE04FF0010C0CFA00F3DD
:10063000B1F800C00CEA03069E4220D183004FF0BF
:100640000F0C0CFA03F7BC4305FA03FC4CEA040454
:1006500091F803C0BCF1280F06D14FF0010C0CFA41
:1006600000FCC2F814C00AE091F803C0BCF1480FC6
:1006700005D14FF0010C0CFA00FCC2F810C0401C70
:100680000828D1D31460B1F800C0BCF1FF0F34DDED
:10069000546800202EE000F1080C4FF0010808FA21
:1006A0000CF3B1F800C00CEA03069E4221D183008E
:1006B0004FF00F0C0CFA03F7BC4305FA03FC4CEAAD
:1006C000040491F803C0BCF1280F05D100F1080C17
:1006D00008FA0CF8C2F8148091F803C0BCF1480F76
:1006E00007D100F1080C4FF0010808FA0CF8C2F825
:1006F0001080401C0828CED35460BDE8F081000073
:10070000F0B50A46002300240021002500F0004631
:10071000B6F1004F02D11D4EF16901E01B4E716828
:10072000C0F3034583B200F44016B6F5401F08D16C
:1007300021F07061154E766826F07066134F7E606A
:1007400012E000F48016B6F5801F06D1032606FAE3
:1007500005F4A14341F0706106E0460D360103FA4D
:1007600006F6B14341F0706122B1460D360103FA3D
:1007700006F6314300F00046B6F1004F02D1034EB9
:10078000F16101E0014E7160F0BD00000000014028
:10079000416170470161704700BFFEE72DE9F041FC
:1007A00007460C4615461E462A2000F04DFD3846E9
:1007B00000F03BFD284600F038FD2B2000F044FD02
:1007C000204600F032FD304600F02FFD2C2000F0D6
:1007D0003BFDBDE8F08170B504460D4616462B463C
:1007E000224629462046FFF7D9FF304600F01DFD7E
:1007F00070BD2DE9F04706460F4614461D46DDF84C
:1008000020A0681E83B2601E82B239463046FFF7D0
:10081000C5FFB8460EE0B14606E0504600F005FDC3
:1008200009F101001FFA80F9A145F6DB08F101008A
:100830001FFA80F8A845EEDBBDE8F08708B5012176
:10084000042000F0CDFD3F20ADF8000010208DF811
:10085000030003208DF8020069460448FFF7C4FE38
:100860003F210248FFF796FF08BD00000008014045
:1008700010B5FFF7E3FF04216248FFF789FF64200A
:1008800000F012FF04215F48FFF784FF642000F0AE
:100890000BFF20215B48FFF77DFF642000F004FF81
:1008A000112000F0D1FC782000F0FEFE362000F090
:1008B000CBFC002000F0C2FC3A2000F0C5FC052073
:1008C00000F0BCFCB22000F0BFFC0C2000F0B6FC35
:1008D0000C2000F0B3FC002000F0B0FC332000F04E
:1008E000ADFC332000F0AAFCB72000F0ADFC3520B1
:1008F00000F0A4FCBB2000F0A7FC322000F09EFC1E
:10090000C22000F0A1FC012000F098FCC32000F000
:100910009BFC152000F092FCC42000F095FC2020E8
:1009200000F08CFCC62000F08FFC0F2000F086FC4D
:10093000D02000F089FCA42000F080FCA12000F071
:100940007DFCE02000F080FCD02000F077FC082047
:1009500000F074FC0E2000F071FC092000F06EFC29
:10096000092000F06BFC052000F068FC312000F04D
:1009700065FC332000F062FC482000F05FFC17208B
:1009800000F05CFC142000F059FC152000F056FC2F
:10099000312000F053FC342000F050FCE12000F046
:1009A00053FCD02000F04AFC082000F047FC0E2049
:1009B00000F044FC092000F041FC092000F03EFC5E
:1009C000152000F03BFC312000F038FC332000F013
:1009D00035FC482000F032FC172000F02FFC1420DA
:1009E00000F02CFC152000F029FC312000F026FC42
:1009F000342000F023FC212000F026FC292000F008
:100A000023FC10BD000801402DE9FF5F80468A46A7
:100A100017469B460F9D00200290CDF80080284687
:100A200005EBD071C1F347042046E21704EB527284
:100A3000D2102146E31704EB5373DB10A4EBC3037E
:100A40000BB1012300E000231A446A4392B20192E1
:100A5000A7F12000C7B20AEB0500401E83B208EBE5
:100A60000400401E82B251464046FFF797FE002622
:100A700069E00C2D07D107EB4700354901EB8000F9
:100A8000805D03901BE0102D05D1324800EB07106C
:100A9000805D039013E0182D07D107EB47002E4926
:100AA00001EB0010805D039009E0202D05D12B485B
:100AB00000EB8710805D039001E0BDE8FF9F4FF0E1
:100AC00000093AE01098C8B9012000FA09F003992A
:100AD000084018B1584600F0A8FB02E00E9800F05C
:100AE000A4FB0298401CC0B20290029890FBF4F163
:100AF00004FB1100E8B90020029021E0012000FA77
:100B000009F00399084020B15A4651464046FFF784
:100B100062FE08F101001FFA80F80098A8EB0000BF
:100B2000A04206D1DDF800800AF101001FFA80FA28
:100B300006E009F1010000F0FF09B9F1080FC1DB7F
:100B400000BF701C86B20198864292DB00BFB4E7FA
:100B500050300008C4340008B43A0008844C00083F
:100B60002DE9FE4F8046894617469A46DDE90D4637
:100B70000C9D36E00C2C09D153463A464946404676
:100B8000CDE90146009500F031F825E0102C09D19F
:100B900053463A4649464046CDE90146009500F0A5
:100BA000C9F819E0182C09D153463A46494640463F
:100BB000CDE90146009500F059F90DE0202C09D14E
:100BC00053463A4649464046CDE90146009500F075
:100BD000F1F901E0BDE8FE8FBF1C08EB04001FFA2D
:100BE00080F838780028C5D100BFF3E72DE9FF5F12
:100BF0000646894692469B460F9C0020039000962D
:100C00002046E21704EB5272D2102146E31704EBA0
:100C10005373DB10A4EBC3030BB1012300E00023EB
:100C20001A44624392B2019205200290002579E0B5
:100C300005EB850000EBC5003D4911F810009AF85E
:100C4000001088426BD105EB850000EBC5003849E8
:100C500001EB400040789AF8011088425FD109EB1F
:100C60000400401E83B23019401E82B2494630460D
:100C7000FFF794FD00274FE04FF0000846E0109882
:100C800008BB05EB850000EBC500294901EB4000DE
:100C9000801CC05D012101FA08F1084018B15846D6
:100CA00000F0C3FA02E00E9800F0BFFA0398401C6F
:100CB000C0B20390039890FBF4F104FB110008BB51
:100CC0000020039025E005EB850000EBC5001849E6
:100CD00001EB4000801CC05D012101FA08F10840D1
:100CE00020B15A4649463046FFF775FD701C86B262
:100CF0000098301AA04205D1009E09F101001FFAA8
:100D000080F906E008F1010000F0FF08B8F1080FD3
:100D1000B5DB00BF781CC7B201988742ACDB00BFCF
:100D2000681C85B20298854282DBBDE8FF9F000007
:100D3000446400082DE9FF5F0646894692469B46BB
:100D40000F9C0020039000962046E21704EB52729D
:100D5000D2102146E31704EB5373DB10A4EBC3035B
:100D60000BB1012300E000231A44624392B20192C6
:100D700005200290002571E005EB05103A4911F8B5
:100D800010009AF80010884265D105EB051036492D
:100D900001EB400040789AF8011088425BD109EBE2
:100DA0000400401E83B23019401E82B249463046CC
:100DB000FFF7F4FC00274BE04FF0000842E01098EA
:100DC000F8B905EB0510284901EB4000801CC05D17
:100DD000012101FA08F1084018B1584600F025FA3F
:100DE00002E00E9800F021FA0398401CC0B2039074
:100DF000039890FBF4F104FB1100F8B90020039074
:100E000023E005EB0510184901EB4000801CC05D94
:100E1000012101FA08F1084020B15A4649463046FE
:100E2000FFF7D9FC701C86B20098301AA04205D199
:100E3000009E09F101001FFA80F906E008F10100A7
:100E400000F0FF08B8F1080FB9DB00BF781CC7B28B
:100E500001988742B0DB00BF681C85B202988542CA
:100E60008ADBBDE8FF9F0000C66400082DE9FF5F34
:100E70000646894692469B460F9C002003900096AA
:100E80002046E21704EB5272D2102146E31704EB1E
:100E90005373DB10A4EBC3030BB1012300E0002369
:100EA0001A44624392B2019205200290002579E033
:100EB00005EB850000EB45103D4911F810009AF84C
:100EC000001088426BD105EB850000EB45103849D6
:100ED00001EB400040789AF8011088425FD109EB9D
:100EE0000400401E83B23019401E82B2494630468B
:100EF000FFF754FC00274FE04FF0000846E0109841
:100F000008BB05EB850000EB4510294901EB4000CB
:100F1000801CC05D012101FA08F1084018B1584653
:100F200000F083F902E00E9800F07FF90398401C6E
:100F3000C0B20390039890FBF4F104FB110008BBCE
:100F40000020039025E005EB850000EB45101849D3
:100F500001EB4000801CC05D012101FA08F108404E
:100F600020B15A4649463046FFF735FC701C86B220
:100F70000098301AA04205D1009E09F101001FFA25
:100F800080F906E008F1010000F0FF08B8F1080F51
:100F9000B5DB00BF781CC7B201988742ACDB00BF4D
:100FA000681C85B20298854282DBBDE8FF9F000085
:100FB000706500082DE9FF5F0646894692469B460C
:100FC0000F9C0020039000962046E21704EB52721B
:100FD000D2102146E31704EB5373DB10A4EBC303D9
:100FE0000BB1012300E000231A44624392B2019244
:100FF00005200290002571E005EB85103A4911F8B3
:1010000010009AF80010884265D105EB851036492A
:1010100001EB400040789AF8011088425BD109EB5F
:101020000400401E83B23019401E82B24946304649
:10103000FFF7B4FB00274BE04FF0000842E01098A8
:10104000F8B905EB8510284901EB4000801CC05D14
:10105000012101FA08F1084018B1584600F0E5F8FE
:1010600002E00E9800F0E1F80398401CC0B2039033
:10107000039890FBF4F104FB1100F8B900200390F1
:1010800023E005EB8510184901EB4000801CC05D92
:10109000012101FA08F1084020B15A46494630467C
:1010A000FFF799FB701C86B20098301AA04205D158
:1010B000009E09F101001FFA80F906E008F1010025
:1010C00000F0FF08B8F1080FB9DB00BF781CC7B209
:1010D00001988742B0DB00BF681C85B20298854248
:1010E0008ADBBDE8FF9F0000E26600082DE9FF4FA4
:1010F00085B0074691461D46DDE913A60020049001
:10110000304606EBD071C1F3470B002434E0281BB6
:10111000401EC1B20A2000F0C5FBB9FBF0F00A2165
:10112000B0FBF1F201FB12080498A0B9681EA042BE
:1011300011DDB8F1000F0CD1002004FB0B71CDE9DB
:1011400000A6029088B22022129B0699FFF75CFC51
:1011500010E001200490002008F13001CAB204FB25
:101160000B71CDE900A6029088B2129B0699FFF799
:101170004BFC00BF601CC4B2AC42C8DB09B0BDE888
:10118000F08F2DE9F05F0746884615461E46DDF8CC
:101190002890002408EB0600401E83B27819401EF8
:1011A00082B241463846FFF7F9FAA24618E04FF0FE
:1011B000000B0FE019F8140000F040F8012101EBDA
:1011C000440119F8010000F039F8641C0BF101002A
:1011D0001FFA80FBB345EDDB0AF101001FFA80FA2C
:1011E000AA45E4DBBDE8F09F2DE9FE4F06460F4619
:1011F00014469846DDE90D5ADDF8309010E0CDE94F
:10120000015ACDF800902278434639463046FFF720
:10121000FBFB284605EBD07106EB61018EB2641C26
:1012200020780028EBD1BDE8FE8F10B504462012CF
:1012300000F01AF8E0B200F017F810BD10B504463F
:10124000204600F011F810BD10B5044608210548ED
:10125000FFF79EFA204600F007F808210148FFF743
:1012600099FA10BD0008014070B5044610211248DB
:10127000FFF78EFA002517E001210F48FFF788FAE3
:1012800004F0800020B102210B48FFF783FA03E04D
:1012900002210948FFF77CFA01210748FFF77AFA93
:1012A0006006040E681CC5B2082DE5DB102102485B
:1012B000FFF770FA70BD00000008014008B5012179
:1012C000052000F08DF801210B48FFF719FA4FF4C3
:1012D0000040ADF8000010208DF8030003208DF8C9
:1012E000020069460548FFF77FF94FF400410348C3
:1012F000FFF750FA08BD000000023000000801406E
:1013000000BFFEE7704708B54FF4C06000F05EF81C
:1013100001208DF801008DF802008DF803001720E0
:101320008DF80000684600F019F817208DF80000CD
:10133000684600F013F817208DF80000684600F0AA
:101340000DF817208DF80000684600F007F82820F7
:101350008DF80000684600F001F808BD70B5002166
:1013600000230F22C47804B3154C246804F4E0640D
:10137000C4F5E064210AC1F10403CA40447804FAC8
:1013800003F184781440214309010E4C0678A155DD
:10139000047804F01F050124AC4005786D11AD0000
:1013A00005F1E025C5F8004109E0047804F01F05C7
:1013B0000124AC40044D0678761145F8264070BDF6
:1013C0000CED00E000E400E080E100E002490143B0
:1013D000024A1160704700000000FA050CED00E0C1
:1013E00029B1064A92690243044B9A6104E0034A18
:1013F00092698243014B9A617047000000100240DD
:1014000010B500F001F810BD0CB50020019000905F
:101410003348006840F480303149086000BF3048EC
:10142000006800F4003000900198401C0190009882
:1014300018B90198B0F5A06FF1D12948006800F4FF
:10144000003010B10120009001E0002000900098D1
:10145000012843D12348006840F01000214908606A
:101460000846006820F0030008600846006840F065
:10147000020008601A4840681949486008464068F8
:1014800048600846406840F480604860084640680C
:1014900020F47C1048600846406840F4E81048603A
:1014A0000846006840F08070086000BF0C48006883
:1014B00000F000700028F9D00948406820F00300CF
:1014C000074948600846406840F00200486000BF95
:1014D0000348406800F00C000828F9D10CBD00005A
:1014E0000010024000200240042808D14FF0E02103
:1014F000096941F004014FF0E022116107E04FF06B
:10150000E021096921F004014FF0E02211617047E8
:101510007047000010B51348006840F00100114901
:10152000086008464068104908400E49486008466F
:1015300000680E4908400B4908600846006820F41E
:10154000802008600846406820F4FE0048604FF4A0
:101550001F008860FFF754FF4FF0006004490860E7
:1015600010BD0000001002400000FFF8FFFFF6FE73
:1015700008ED00E010B540F225511D4800F03EF89E
:1015800010B31B4800F064F8C4B21A48008800F495
:101590000040C8B91748008800F4804060B10A2CA8
:1015A00003D000201349088020E01248008840F44E
:1015B00000401049088019E00D2C06D10D48008824
:1015C00040F480400B49088010E00A480088C0F3CE
:1015D0000D0009490C5407480088401C0549088043
:1015E00008460088C72801DD0020088010BD0000E3
:1015F00000380140280000208C00002070B5024611
:10160000002400230025002040F66A16B14200D1D4
:1016100000BFC1F3421501F01F03012606FA03F3D0
:10162000012D02D19689334006E0022D02D1168A9F
:10163000334001E0968A33400C12012606FA04F486
:101640001688344013B10CB1012000E0002070BDB9
:1016500001468888C0F30800704700BFFEE700BF5E
:101660007047000010B56FF00400FFF73DFF0A4817
:1016700000680A49B0FBF1F0094908700846007893
:1016800000EB4001C1EBC0104FF6FF7101EAC00052
:101690000449088010BD00000000002000127A00FC
:1016A00020000020220000200146114A12884A43EF
:1016B0004FF0E0235A6100229A611A46126942F003
:1016C00001021A6100BF4FF0E022106900F0010230
:1016D0001AB100F48032002AF5D04FF0E0221269EE
:1016E00022F001024FF0E0231A6100229A61704754
:1016F000220000200EB58AE000F01AFB064600200A
:1017000020214FF6FF724FF47843CDE9002102907B
:101710003FA20146FFF724FA002010214FF6FF7286
:101720004FF47843CDE9002102903CA22821FFF735
:101730005BFD10204FF6FF714FF478420323CDE993
:1017400000210290F02228213020FFF7CFFC00205A
:1017500010214FF6FF724FF47843CDE9002102903B
:1017600030A228215020FFF73FFD10204FF6FF71D7
:101770004FF478420323CDE900210290F022282182
:101780008020FFF7B3FC002010214FF6FF724FF4CA
:101790007843CDE90021029022A228215020FFF7B2
:1017A00023FD002010214FF6FF724FF47843CDE95E
:1017B000002102901DA24621FFF716FD10204FF6D2
:1017C000FF714FF47842CDE900210290B2B20123BB
:1017D00046218020FFF78AFC002515E000240FE059
:1017E000174805EB8502782303EBC20104EB840262
:1017F0000090D00028231A46FFF7C3FC601CC4B237
:10180000062CEDDB681CC5B2032DE7DB00BF73E7D8
:10181000D6D0BEB0D4B0B5E7D7D300004C43445FB8
:10182000573A00004C43445F483A0000496E6372E7
:1018300065617365696E67204E756E3A0000000041
:10184000D02300081CB5FFF70DFFFEF70DFEFFF7D4
:1018500035FDFFF70DF84FF6FF70F0231A46002113
:1018600000900846FEF7C5FF0020084908600848B8
:10187000012100238022CDE9001006A1084800F0D4
:10188000FDFB00F073FB00201CBD0000BC012142E9
:101890001800002073746172745F7461736B0000D0
:1018A0004D1D000810B50246012000E050430B1EFC
:1018B000A1F10104E1B2F9D110BD000010B5044658
:1018C00000F096FA2F480068401C2E4908602E4808
:1018D000006840B92C4804600846006801280DD112
:1018E00000F016F90AE02948006838B9264800686F
:1018F000C06AE16A884201D823480460244800682D
:10190000401C2349086094F82C100120884021498C
:10191000096808431F490860E16A01EB81011E4A1A
:1019200002EB81014868A0608268E260211D826844
:1019300051608160E16A01EB8101174A02EB81028B
:101940006261E16A01EB8101134A52F82110491CDE
:10195000E26A02EB8202104B43F8221000F05AFABE
:101960000A48006868B108480068C06AE16A8842AD
:1019700007D24FF0805009490860BFF34F8FBFF383
:101980006F8F10BD3C0000202C000020480000207C
:1019900058000020440000205401002004ED00E025
:1019A00010B516E000F024FA0C48C068C468201D89
:1019B00000F0EEF90A480068401E0949086009482D
:1019C0000068401E0749086000F024FA204600F035
:1019D0000BF8044800680028E4D110BDF401002091
:1019E0003C0000203800002010B50446206B00F0B9
:1019F00021FA204600F01EFA10BD000030B54FF469
:101A00008843154800F007042CB1C01D20F00700E2
:101A1000114C041B1B1B0246104C226000240F4D6E
:101A20006C60D018083820F007000D4C20600024AE
:101A30000B4D2D686C600A4D2D682C601146441AC0
:101A40004C60074C24680C60064D4C682C60064DB9
:101A50004C682C6030BD00001C0200206C0000208F
:101A6000740000207C0000207800002000BFFFF7F9
:101A700097FF064800680128F9D94FF080500449C3
:101A80000860BFF34F8FBFF36F8FF0E75401002062
:101A900004ED00E02DE9FF5F80460E469146DDE94A
:101AA0000E7A109CA9F10100216B01EB800B2BF049
:101AB000070B7EB1002507E0715D04F1340041554C
:101AC000705D00B902E06D1C102DF5D300BF002140
:101AD00043200155052F00D30427E762201D00F0A5
:101AE00078F904F1180000F074F92461C7F10500D9
:101AF000A061646241465846039A00F007F92060ED
:101B0000BAF1000F01D0CAF80040BDE8FF9F000005
:101B100010B5002407E004EB84010F4A02EB8100BA
:101B200000F04AF9641C052CF5D30C4800F044F988
:101B30000B4800F041F90B4800F03EF90A4800F06C
:101B40003BF90A4800F038F904480949086004489C
:101B50000849086010BD000054010020B8010020B1
:101B6000CC010020E0010020F40100200802002048
:101B7000300000203400002010B50146164800E077
:101B8000006803688B42FBD30246436813448B42D0
:101B900004D143684C682344436001460A464B68BD
:101BA00013440468A34211D10C4C03682468A34277
:101BB00008D04B680468646823444B6003681B6862
:101BC0000B6005E0054B1B680B6001E003680B60D0
:101BD000884200D0016010BD6C000020740000201D
:101BE00009480068006808B9012000E0002020B121
:101BF0004FF0FF300549086005E003480068C06801
:101C00000068024908607047300000205C00002036
:101C100000BFBF2080F31188BFF34F8FBFF36F8FDA
:101C200000BF00BFFEE700002DE9F04705464FF07A
:101C3000000900F0D1F93048006808B9FFF7DEFE6E
:101C400075B105F00700C0F11008C8F1FF30A842D7
:101C500001D2012000E0002008B9454400E0002541
:101C6000012000EBE570002841D0002D3FD0234833
:101C7000006885423BD8224E3046046801E0264683
:101C800024686068A84202D220680028F7D11A4868
:101C9000006884422BD0306800F108092068306069
:101CA0006068401B102807D967196068401B78607E
:101CB00065603846FFF760FF104960680968081AD8
:101CC0000E490860084600680E490968884203D238
:101CD0000A4800680B490860606840F00040606096
:101CE0000020206008480068401C0749086000F098
:101CF000C1FA4846BDE8F087740000207800002053
:101D00006C0000207C00002080000020001F4FF0AD
:101D100080730360001F21F001030360001F034B69
:101D2000036014380260203870470000111C00085E
:101D3000024908680021014A116070471400002020
:101D40000149086070470000140000201CB50446DB
:101D500000F04EF80848022100233222CDE900109D
:101D600006A1094800F08AF90848006800F094F8D4
:101D700000F050F81CBD00001C0000206C636430B3
:101D80005F7461736B000000F516000818000020F6
:101D900001460A69D1E901309860D1E90103586030
:101DA0005068884201D1886850600020086110683E
:101DB000401E10601068704700F1080141604FF04C
:101DC000FF31816000F10801C16001610021016003
:101DD000704700210161704742684A6093688B60D8
:101DE000936859609160086103685B1C03607047E9
:101DF00000BFBF2080F31188BFF34F8FBFF36F8FF9
:101E000000BF03480068401C01490860704700009B
:101E10008800002006480068401E05490860084602
:101E2000006820B9002080F3118800BF00BF704710
:101E30008800002070B506463546E6B1083D2C46C0
:101E40006068C00FB8B12068A8B9606820F0004091
:101E5000606000F0C1F808496068096808440649F4
:101E600008602046FFF788FE04480068401C0349CC
:101E7000086000F0FFF970BD7800002084000020A9
:101E800000204FF0E0210861886102484861072086
:101E9000086170473F19010070B50546FFF7A8FFBC
:101EA00015B92948006800E028460446201DFFF7C0
:101EB0006FFF78B9E06A00EB8000244951F82000F8
:101EC00040B994F82C1001208840214909688143C9
:101ED0001F480160A06A18B104F11800FFF758FF0D
:101EE0001C480068401C1B49086017480068844271
:101EF00009D1211D1848FFF76FFF18480068401CE2
:101F00001649086006E016480068401E144908603B
:101F1000FFF766FEFFF77EFF0B480068844202D0A1
:101F20002046FFF761FD0F48006858B10648006879
:101F3000844207D14FF080500B490860BFF34F8FA8
:101F4000BFF36F8F70BD00002C00002054010020F3
:101F50004400002058000020F40100203800002038
:101F60003C0000204800002004ED00E01CB51248B1
:101F700000210B468022CDE9001010A1114800F08D
:101F80007DF80446012C14D100BFBF2080F31188D6
:101F9000BFF34F8FBFF36F8F00BF4FF0FF300A4981
:101FA000086001200949086000200949086000F024
:101FB0004BF8084800681CBD6000002049444C45AF
:101FC000000000006D1A00085C000020480000209E
:101FD000400000206400002002480068401C0149C5
:101FE00008607047680000201248006818B101209E
:101FF000114908601DE000200F4908600F48006883
:10200000B0FA80F0C0F11F0101EB81020C4B03EB31
:10201000820042685268426000F1080243689342BD
:1020200002D14268526842604268D268054B1A6029
:1020300000BF7047680000205000002044000020CE
:10204000540100202C00002010B50A48006840F41C
:102050007F00084908600846006840F07F4008603B
:10206000FFF70EFF002004490860FEF79FF80020EC
:1020700010BD000020ED00E0880000202DE9FF4F9A
:1020800085B0804689461746DDE912ABB800FFF7F8
:10209000CBFD064676B14C20FFF7C6FD04462CB1B9
:1020A0004C212046FEF7DDF8266304E03046FFF7BA
:1020B000C1FE00E000247CB10020CDE900ABCDE9F9
:1020C00002403A4649464046089BFFF7E3FC20465B
:1020D000FFF7F4FB012501E04FF0FF35284609B07A
:1020E000BDE8F08F2DE9F04100275748006800282F
:1020F0007ED156480068451C544805608DB9544847
:10210000D0F8008053480068514908605148C0F831
:10211000008051480068401C4F490860FFF760FD8F
:1021200000BF4E480068854276D300BF484800682B
:10213000006808B9012000E0002020B14FF0FF3016
:102140004649086067E042480068C068C46866683D
:10215000B54202D2414806605DE06069D4E90212EE
:102160008A60D4E902214A60211D42688A4201D175
:10217000E1684160002262610168491E0160A06A55
:1021800098B1A06AD4E907128A60D4E907214A60AD
:1021900004F1180142688A4201D1216A416000229B
:1021A000A2620168491E016000BF94F82C10012052
:1021B00088402B490968084329490860E16A01EB16
:1021C0008101284A02EB81014868A0608268E260D0
:1021D000211D826851608160E16A01EB8101214A21
:1021E00002EB81026261E16A01EB81011D4A00E0BC
:1021F00022E052F82110491CE26A02EB8202194BDC
:1022000043F822101849E06A0968C96A88428DD9E2
:1022100001278BE700E000BF13480068C06A00EBAD
:102220008000104951F82000012800D901270F48EB
:10223000006800B1012704E00D480068401C0C490B
:1022400008603846BDE8F0816800002040000020AA
:102250003000002034000020540000205C000020EA
:1022600044000020540100202C00002050000020D9
:102270004C00002070B500240026FFF7B9FD4B4844
:102280000068401E494908600846006800287DD162
:1022900047480068002879D05BE04648C068C468B9
:1022A000A06AD4E907128A60D4E907214A6004F1E0
:1022B000180142688A4201D1216A41600022A2626B
:1022C0000168491E01606069D4E902128A60D4E99C
:1022D00002214A60211D42688A4201D1E1684160C1
:1022E000002262610168491E016094F82C100120EF
:1022F00088403149096808432F490860E16A01EBC9
:1023000081012E4A02EB81014868A0608268E26088
:10231000211D826851608160E16A01EB8101274AD9
:1023200002EB81026261E16A01EB8101234A52F80A
:102330002110491CE26A02EB8202204B43F8221072
:102340001F49E06A0968C96A884202D301201D4911
:1023500008601848006808B9012000E00020002843
:102360009BD00CB1FFF73CFC1748056865B100BF76
:10237000FFF7B8FE10B10120124908606D1E002D54
:10238000F6D10020104908600E4800E009E000681E
:1023900038B1012630070D490860BFF34F8FBFF3F6
:1023A0006F8FFFF737FD304670BD000068000020DA
:1023B0003C000020E00100204400002054010020E7
:1023C0002C000020500000204C00002004ED00E014
:1023D000FFFFFFFFFFFFFFFFFFFFFFFFFFFFFFFF0D
:1023E000FFFFFFFFFFFFFFFFFFFFFFFFFFFFF7BE46
:1023F000FFFFFFDEC6388C926B8E6B6E7C10AD9645
:10240000E73CFFFFFFFFFFFFFFFFFFFFFFFFFFFFB7
:10241000FFFFFFFFFFFFFFFFFFFFFFFFFFFFFFFFCC
:10242000FFFFFFFFFFFFFFFFFFFFFFFFFFFFFFFFBC
:10243000FFFFFFFFFFFFFFFFFFFFFFFFFFFFEF5D5E
:102440009D15634F426C320A29881946192521458A
:1024500031E86B8EC638FFFFFFFFFFFFFFFFFFFF76
:10246000FFFFFFFFFFFFFFFFFFFFFFFFFFFFFFFF7C
:10247000FFFFFFFFFFFFFFFFFFFFFFFFFFFFFFFF6C
:10248000FFFFFFFFFFFFFFFFFFFFFFFFA53653101A
:102490004B1053514B0F3A6C31E92167192510E469
:1024A00008A30062088352CBD69AFFFFFFFFFFFF0D
:1024B000FFFFFFFFFFFFFFFFFFFFFFFFFFFFFFFF2C
:1024C000FFFFFFFFFFFFFFFFFFFFFFFFFFFFFFFF1C
:1024D000FFFFFFFFFFFFFFFFE73C637063B37CB8C4
:1024E00063F54311324D29EA21881926190519058A
:1024F0001104110410E4008308A38C72FFFFFFFF96
:10250000FFFFFFFFFFFFFFFFFFFFFFFFFFFFFFFFDB
:10251000FFFFFFFFFFFFFFFFFFFFFFFFFFFFFFFFCB
:10252000FFFFFFFFFFFFDEDB3A4B42F06C354B5401
:1025300032B12A2E21EB21A91967190511041104C2
:10254000110411041104190510E4004273AFFFFFD8
:10255000FFFFFFFFFFFFFFFFFFFFFFFFFFFFFFFF8B
:10256000FFFFFFFFFFFFFFFFFFFFFFFFFFFFFFFF7B
:10257000FFFFFFFFEF5D3209324C4B10328F2A4FC5
:102580002A2E19CC1989218919471905110411041A
:1025900010C410C411041104110410E40042843169
:1025A000FFFFFFFFFFFFFFFFFFFFFFFFFFFFFFFF3B
:1025B000FFFFFFFFFFFFFFFFFFFFFFFFFFFFFFFF2B
:1025C000FFFFFFFF52EC1947324C2A0B21EC21ECA4
:1025D000220C5B914AEE11061926190410E410E44E
:1025E00029A7216608A319051104110410E400822B
:1025F000BDF7FFFFFFFFFFFFFFFFFFFFFFFFFFFF35
:10260000FFFFFFFFFFFFFFFFFFFFFFFFFFFFFFFFDA
:10261000FFFFA535088321882188218921AA218AE5
:10262000426B8C71FFFF8C720883110408C442292D
:10263000DEFBEF5D5AEC08831104110411040883DA
:1026400031E8FFDFFFFFFFFFFFFFFFFFFFFFFFFF9F
:10265000FFFFFFFFFFFFFFFFFFFFFFFFFFFFFFFF8A
:10266000F7BE31C710C4192519261947194729A8DB
:10267000528A4A28AD55FFFF31E808A319056B4D72
:102680006B4DFFFFEF7D214510C4110411041104AF
:102690000062AD76FFFFFFFFFFFFFFFFFFFFFFFFC1
:1026A000FFFFFFFFFFFFFFFFFFFFFFFFFFFFFFFF3A
:1026B000B5960062110419041105190508C44A8B66
:1026C000B5B6EF5DBDF7FFFF6B8E006242295AAAD7
:1026D0004208FFFFFFFF52CC0883110411041104CC
:1026E00008A352ADFFFFFFFFFFFFFFFFFFFFFFFF4C
:1026F000FFFFFFFFFFFFE71CFFFFFFFFFFFFFFFFE5
:10270000634E006211041104110410E40062638E30
:10271000FFFFFFFFFFFFFFFF73CF00019CF3632C60
:10272000B596FFFFFFFF5B2D008311041104110418
:1027300010E42167EF3DFFFFFFFFFFFFFFFFFFFFFB
:10274000BDF8B5B7EF9E52CB94B3FFFFFFFFFFDF9D
:1027500031E808A3110411041104110408A342492B
:10276000F7FFF7FFFFFFFFFF4A6A00018472FFFFD8
:10277000FFFFF7FFEFDF3A0908A31104110411046A
:1027800011041105BE18FFFFFFFFFFFFFFFFFFFF52
:102790007BF0006231E831C70041A535FFFFEF5DF6
:1027A000214610C4110411041104110410E408A3FB
:1027B0009D76F7FFFFFFADB708A308A331C7E79EDB
:1027C000F7FFF7FFA57608A310E411041104110424
:1027D00011051105A535FFFFFFFFFFFFFFFFFFFFFD
:1027E000DEDB29A7008310C410C410C4E71CEF9ED1
:1027F000110510E41104110411041104190408C492
:1028000010E56BD16BD108C5006408A50043322BDD
:102810009D7784B3192510C4110411041104110407
:10282000192509269D35FFFFFFFFFFFFFFFFFFFF73
:10283000FFFF73AF00621904190500825B0D9B8EC8
:102840001062110511041104190410E4008511052A
:1028500039C45A817B409C22AC43A4039B8372827F
:10286000498218C200A400C510E419041104190516
:10287000194711675AECFFBEFFFFFFFFFFFFFFFF85
:10288000FFDFDEDB10C410E41104110518A4C00141
:10289000888300E41905190408C521448343D5231E
:1028A000FE42FEE4FF27FF07FEA4FE64FE03FDA335
:1028B000FCE2EC42B383622410E508C41904192633
:1028C00019A821879000BCD3FFFFFFFFFFFFFFFF88
:1028D000FFDFFFFF7C100042190511052883D0019E
:1028E000F84448A300E408C55A44ED02FDE2FE02A4
:1028F000FE66FF74FFB8FF73F6E7F6A6F645F5A48B
:10290000FCC3FC62FCC2FCC2CBE349C411061988BB
:10291000018790A4F8019AECFFFFFFFFFFFFFFFF84
:10292000FFFFFFFFF7BE31E8008309054082C001C9
:10293000F823F08548A300A45A44FD02CC23DCC24E
:10294000FE04FE28F648F646F624F5E4FD64FCE3B2
:10295000FC62FCC2E402DC02FCE27AA401480167EA
:1029600078C4F824F802B084E77DFFFFFFFFFFFF83
:10297000FFFFFFFFFFFFDEDB192500A338C4E002E5
:10298000D822F844F8A678A40063214372833983DF
:102990009B82F521FD61FD22FCE2FCA2FC42FC428F
:1029A000FC42AB22418392C352040126192598A40C
:1029B000F844F823F802D0A4EF9EFFFFFFFFFFFFCB
:1029C000FFFFFFFFFFFFFFFFD69A298700A5B8434F
:1029D000F822E023F865F8E8C9074883004200A31D
:1029E000008429637AA2B362CBA2D362BB028A823B
:1029F000398300A400E500E508E560C4D864F84424
:102A0000F824F823F8028883C6DBFFFFFFFFFFFFEF
:102A1000FFFFFFFFFFFFFFFFFFFFE73D5B503108B8
:102A2000E823F843F044F865F909F9ABD189890640
:102A300048A3184200020042006100820062006266
:102A4000008320A350C488A5D885F865F844F844CD
:102A5000F823F823D003108229C7EF5DFFFFFFFFA3
:102A6000FFFFFFFFFFFFFFFFFFFFFFFFFFFF326CD6
:102A700038A5D802F823F865F866F8A7F94AFA0CE1
:102A8000FA4DEA4CD20BB9A9B168A947B127B907E9
:102A9000D107E8E7F8C7F8A7F865F865F844F82320
:102AA000F803D00228A3090508C45AECFFFFFFFF72
:102AB000FFFFFFFFFFFFFFFFFFFFFFFFDEFB19052B
:102AC00000C441A7C0E6F803F886F8A7F887F8869F
:102AD000F8C7F929F98AF9ABF9ABF98BF96AF92941
:102AE000F908F8C7F8A6F886F865F864F823F00244
:102AF000B106292500E410E4192519259D14FFFFCE
:102B0000FFFFFFFFFFFFFFFFFFFFFFFFAD9600622C
:102B100008829535CEBAA28BD044F825F887F8A75D
:102B2000F8C7F8A7F887F886F886F886F887F8A730
:102B3000F8A7F8A6F885F865F864F024B864930D52
:102B4000B6BB63CF0883110410E421663A49EF5DF8
:102B5000FFFFFFFFFFFFFFFFFFFFFFFF94D30042D8
:102B600010E4CEBBFFFFE7BEB576AACCC107E045B7
:102B7000F845F846F866F886F886F886F886F86527
:102B8000F845F865E865D044A84388019082D73CB1
:102B9000EFFF95550883110411041905194694B3E4
:102BA000FFFFFFFFFFFFFFFFFFFFFFFF94B30041A9
:102BB0002186DF5DFFFFFFFFFFFFE7DFC67AB4D3AB
:102BC000B34EC22AD168E0E6E8A6E8A5E8A5D8E6B3
:102BD000C988A906A822A802A000C800D800E5F765
:102BE000E7FFADF810C410E4110410E411054A8B9E
:102BF000FFFFFFFFFFFFFFFFFFFFFFFFA5550041A6
:102C000029A7DF5DF7FFFFFFFFFFFFFFFFFFFFFFCC
:102C1000EFFFDF7DCEDBCE59CDF8CDD7C5F7CE792E
:102C2000BEFBA2ABF003F845D042E843F000D472FB
:102C3000DFFFAE3910E410E4110410E41105298718
:102C4000FFFFFFFFFFFFFFFFFFFFFFFFCE590883DE
:102C50002146D71CF7FFFFFFFFFFFFFFFFFFFFFF2E
:102C6000FFFFFFFFFFFFFFFFFFFFFFFFFFFFFFFF74
:102C7000EFFFBA8BF804F845E062F044F800DB8E11
:102C8000DFFFA5F810C410E410E4110410E41925C6
:102C9000FFFFFFFFFFFFFFFFFFFFFFFFF7BE2987DB
:102CA0000883B639F7FFF7DFFFFFFFFFFFFFFFFFE6
:102CB000FFFFFFFFFFFFFFFFFFFFFFFFFFFFFFFF24
:102CC000E7BEBA4AF803F845F864F844F800E36E42
:102CD000D7FF8CF40883110410E410E410E4190504
:102CE000FFFFFFFFFFFFFFFFFFFFFFFFFFFF73EF90
:102CF00000008472EFFFEFBEFFDFFFFFFFFFFFFF6B
:102D0000FFFFFFFFFFFFFFFFFFFFFFFFFFFFFFFFD3
:102D1000E7DFBA8BF803F845F845F823F800D4D379
:102D2000D7FF5B4E00213A29A555088310C4192509
:102D3000FFFFFFFFFFFFFFFFFFFFFFFFFFFFDEFBC8
:102D400008A331E8DF9EE79EEFBFFFFFFFFFFFFF15
:102D5000FFFFFFFFFFFFFFFFFFFFFFFFFFFFFFFF83
:102D6000F7FFBC51E002F803F003E043C2ECCF7E72
:102D7000BEFC2146002194D3FFFF84510000298727
:102D8000FFFFFFFFFFFFFFFFFFFFFFFFFFFFFFFF53
:102D9000845100008CF4EFFFE79EEFBFFFDFFFFFE1
:102DA000FFFFFFFFFFFFFFFFFFFFFFFFFFFFFFFF33
:102DB000FFFFDF3DBD55BC52BC72B5B7C75DDFFF3D
:102DC0006BF000003A09F7BFFFFFFFFF9D14A55508
:102DD000FFFFFFFFFFFFFFFFFFFFFFFFFFFFFFFF03
:102DE000FFFF4AAC08A4BEBBE7DFE77EEFBEF7DF1C
:102DF000FFDFFFFFFFFFFFFFFFFFFFFFFFFFFFFF03
:102E0000FFDFF7DFEFFFDFDFD7BFD79EDFDFA5D81C
:102E100008831126D6DBFFFFFFFFFFFFFFFFFFFF49
:102E2000FFFFFFFFFFFFFFFFFFFFFFFFFFFFFFFFB2
:102E3000EE79DC8B312121A9CF3DDFBFDF7EE79E1C
:102E4000EFBEEFBFF7DFF7DFF7DFF7DFF7DFEFBF4B
:102E5000EFBEE79EDF7ED75ED75EDFDFB69A19262C
:102E60000842A3EDFFBFFFFFFFFFFFFFFFFFFFFFD4
:102E7000FFFFFFFFFFFFFFFFFFFFFFFFFFFFDD740F
:102E8000DBC0FE00EE4242022189B67BDFDFD77E47
:102E9000DF7EDF7EE79EE79EE79EE79EE79EDF7E82
:102EA000DF7ED75DD75DDF9EE7FFA5F8110718E34A
:102EB000C502FD60D3E6EEDBFFFFFFFFFFFFFFFF74
:102EC000FFFFFFFFFFFFFFFFFFFFFFFFF79EBA843B
:102ED000FCC1FE42FE82FEA2838121457474C75E5E
:102EE000DFDFD77ED75ED75DD75ED75ED75DD75D94
:102EF000D75EDF9EE7FFC73D63F108845242E626B6
:102F0000FF29FE86F3E0C36AFFFFFFFFFFFFFFFF1D
:102F1000FFFFFFFFFFFFFFFFFFFFFFFFDE18D2C134
:102F2000FDA2FE22FE42FE42FE62D4E26A41424916
:102F30007453A63BC73ED7BFD7BFD7BFDFBFD7BFEE
:102F4000C73EA61A63F229A74182B422FE62FE831D
:102F5000FEAAFF0FFD67BA63EF3CFFFFFFFFFFFF15
:102F6000FFFFFFFFFFFFFFFFFFFFFFFFE69AD2809B
:102F7000FD21FDC2F5E2F5C2F582FD82FD62DC6154
:102F80009B216A846AE9632C63AF7411636E632CBE
:102F90005A8952047A81CBC2FCE2FD62FD82FDC2F5
:102FA000FDC2FDE4FD24CA62E71CFFFFFFFFFFFF37
:102FB000FFFFFFFFFFFFFFFFFFFFFFFFFFFFCCB1A2
:102FC000D281F3C0FCC1FD02FD02FCE2FCC2FCC2E6
:102FD000FC81FB80C9C081A4AD35CE599C71812193
:102FE000DA00FBA1FC82FCA2FC82FCA2FD02FD2215
:102FF000FCE2FC00DA60CC90FFFFFFFFFFFFFFFF69
:10300000FFFFFFFFFFFFFFFFFFFFFFFFFFFFFFFFD0
:10301000DE59C40DCB06D2E4DB03DB03DAE3D2C313
:10302000C2A4B309BCD2F79EFFFFFFFFFFFFE6FB80
:10303000B40EBAA6D283E2E3EB02EB22E322DB0377
:10304000D2E4C36AD5B6FFFFFFFFFFFFFFFFFFFF1C
:103050000000000000000000000000000000040468
:10306000040404000004000014140A00000000001E
:103070000000000000000A0A1F0A0A1F0A0A0000D6
:1030800000040E1505060C14150E040000001215A0
:103090000D152E2C2A1200000000040A0A36151500
:1030A00029160000020201000000000000000000DC
:1030B00010080804040404040808100002040408AA
:1030C000080808080404020000000004150E0E158C
:1030D0000400000000000008083E0808000000008E
:1030E00000000000000000000202010000000000DB
:1030F000003F000000000000000000000000000091
:103100000002000000201010080804040202010060
:1031100000000E1111111111110E00000000040623
:1031200004040404040E000000000E11110804023F
:10313000011F000000000E11100C1010110E0000F5
:103140000000080C0C0A091F081C000000001F01E9
:10315000010F1110110E000000000C12010D1311CF
:10316000110E000000001E100808040404040000F2
:1031700000000E11110E1111110E000000000E11B1
:1031800011191610090600000000000004000000DC
:10319000000400000000000000040000000404001F
:1031A00000001008040202040810000000000000E3
:1031B0003F003F000000000000000204081010085B
:1031C0000402000000000E111108040400040000B5
:1031D00000001C22292D2D1D221C000000000404CB
:1031E0000C0A0A1E1233000000000F12120E1212F7
:1031F000120F000000001E1101010101110E00005C
:1032000000000F1212121212120F000000001F1203
:103210000A0E0A02121F000000001F120A0E0A0204
:103220000207000000001C1201013911120C0000FD
:1032300000003312121E12121233000000001F048D
:1032400004040404041F000000003E0808080808E5
:1032500008080907000037120A060A121237000090
:103260000000070202020202223F000000003B1B96
:103270001B1B15151535000000003B1216161A1AF7
:103280001217000000000E1111111111110E000093
:1032900000000F12120E02020207000000000E11C1
:1032A00011111117190E180000000F12120E0A1238
:1032B0001237000000001E1101060810110F000057
:1032C00000001F1504040404040E00000000331263
:1032D00012121212120C000000003312120A0A0C11
:1032E000040400000000151515150E0A0A0A000056
:1032F00000001B0A0A04040A0A1B000000001B0A43
:103300000A0A0404040E000000001F090804040255
:10331000121F00001C0404040404040404041C0020
:103320000002020404040808081010000E0808082F
:103330000808080808080E00040A00000000000041
:103340000000000000000000000000000000003F3E
:103350000204000000000000000000000000000067
:10336000000C121C123C000000030202020E12129A
:10337000120E000000000000001C1202120C0000DF
:1033800000181010101C1212123C00000000000067
:10339000000C121E021C000000182404041E040469
:1033A000041E000000000000003C120C021C221C45
:1033B00000030202020E1212123700000004040081
:1033C00000060404040E000000080800000C0808B1
:1033D0000808080700030202021A0A060A1300007E
:1033E0000007040404040404041F0000000000009B
:1033F000000F15151515000000000000000F121237
:103400001237000000000000000C1212120C000025
:1034100000000000000F1212120E02070000000050
:10342000001C1212121C103800000000001B0602C3
:103430000207000000000000001E020C101E000029
:1034400000000004041E0404041C0000000000002E
:10345000001B1212123C000000000000001B0A0AB0
:1034600004040000000000000015150E0A0A000008
:1034700000000000001B0A040A1B000000000000FE
:10348000003312120C08040300000000001E0804A0
:10349000041E000018080808080C0808080818008E
:1034A00008080808080808080808080806040404AA
:1034B00004080404040406001609000000000000CB
:1034C00000000000000000000000000000000000FC
:1034D00000000000000000080808080808080000B4
:1034E0001818000000486C241200000000000000C2
:1034F000000000000000002424247F1212127F121A
:10350000121200000000081C2A2A0A0C1828282A77
:103510002A1C080800000022251515152A585454A5
:10352000542200000000000C1212120A7625291104
:10353000916E000000060604030000000000000079
:1035400000000000004020101008080808080810BB
:10355000102040000002040808101010101010087D
:10356000080402000000000008086B1C1C6B08081F
:103570000000000000000000080808087F08080894
:103580000800000000000000000000000000000033
:10359000060604030000000000000000FE0000001A
:1035A000000000000000000000000000000000001B
:1035B000060600000000804040202010100808048B
:1035C00004020200000000182442424242424242E9
:1035D00024180000000000080E0808080808080861
:1035E000083E00000000003C424242202010080437
:1035F000427E00000000003C424220182040404231
:10360000221C0000000000203028242422227E20DA
:10361000207800000000007E0202021A264040428C
:10362000221C0000000000382402021A26424242F6
:10363000241800000000007E22221010080808084C
:10364000080800000000003C424242241824424284
:10365000423C0000000000182442424264584040AE
:10366000241C0000000000000000181800000000EA
:103670001818000000000000000000080000000012
:10368000000808040000004020100804020408108C
:10369000204000000000000000007F0000007F00CC
:1036A0000000000000000002040810204020100864
:1036B000040200000000003C42424640201010007E
:1036C000181800000000001C225A555555552D426F
:1036D000221C00000000000808181414243C224298
:1036E00042E700000000001F2222221E2242424226
:1036F000221F00000000007C424201010101014242
:10370000221C00000000001F22424242424242426C
:10371000221F00000000003F4212121E121202423D
:10372000423F00000000003F4212121E121202022D
:10373000020700000000003C222201010171212249
:10374000221C0000000000E7424242427E42424208
:1037500042E700000000003E0808080808080808C2
:10376000083E00000000007C101010101010101017
:103770001010110F0000007722120A0E0A121222F6
:103780002277000000000007020202020202020289
:10379000427F000000000077363636362A2A2A2A71
:1037A0002A6B0000000000E346464A4A5252526229
:1037B000624700000000001C22414141414141415B
:1037C000221C00000000003F424242423E02020230
:1037D000020700000000001C2241414141414D53BD
:1037E000321C60000000003F4242423E1212222280
:1037F00042C700000000007C424202041820404200
:10380000423E00000000007F490808080808080838
:10381000081C0000000000E742424242424242428D
:10382000423C0000000000E7424222242414141805
:10383000080800000000006B4949494955553622E7
:1038400022220000000000E7422424181818242433
:1038500042E700000000007722221414080808083C
:10386000081C00000000007E212010100804044203
:10387000423F0000007808080808080808080808FF
:10388000080878000000020204040808081010204C
:1038900020204040001E10101010101010101010AA
:1038A00010101E000038440000000000000000005E
:1038B0000000000000000000000000000000000008
:1038C000000000FF000608000000000000000000EB
:1038D00000000000000000000000003C427844426C
:1038E00042FC0000000000030202021A264242428B
:1038F000261A000000000000000000384402020206
:103900004438000000000060404040784442424299
:1039100064D80000000000000000003C427E02026B
:10392000423C0000000000F08808087E08080808F3
:10393000083E0000000000000000007C22221C0263
:103940003C42423C000000030202023A464242422C
:1039500042E700000000000C0C00000E08080808F8
:10396000083E0000000000303000003820202020F9
:103970002020221E0000000302020272120A161208
:10398000227700000000000E080808080808080850
:10399000083E0000000000000000007F929292921A
:1039A00092B70000000000000000003B4642424287
:1039B00042E70000000000000000003C424242429A
:1039C000423C0000000000000000001B2642424272
:1039D000221E02070000000000000078444242421C
:1039E000447840E000000000000000774C0404042C
:1039F000041F0000000000000000007C42023C4068
:103A0000423E0000000000000008083E08080808C8
:103A10000830000000000000000000634242424203
:103A200062DC000000000000000000E742242414D3
:103A30000808000000000000000000EB494955554F
:103A40002222000000000000000000762418181850
:103A5000246E000000000000000000E7422424144F
:103A600018080807000000000000007E2210080867
:103A7000447E000000C02020202020102020202094
:103A80002020C00010101010101010101010101076
:103A90001010101000060808080808100808080888
:103AA000080806000C32C200000000000000000000
:103AB0000000000000000000000000000000000006
:103AC00000000000000000000000000000000000F6
:103AD00000000000000000000000000000000000E6
:103AE0000000000000000000000000006000600016
:103AF0006000600060006000600040002000200066
:103B00002000000000000000600060006000000075
:103B1000000000000000000060066006300398010D
:103B200088004400000000000000000000000000C9
:103B30000000000000000000000000000000000085
:103B40000000000000000000000000001002100251
:103B500010021002FE07FE07080208010801080112
:103B60000801FE07FE07040104010401040100002E
:103B70000000000000000000000040004000F001D4
:103B800058034C03CC034C0058007000E000C00107
:103B9000C00140034C035C034C034801F0004000AB
:103BA0004000000000000000000000000E010A01BB
:103BB000910091009100510051003A00AE03A00223
:103BC000500450044804480448048402840300005C
:103BD00000000000000000000000000038006C0041
:103BE0006C006C006C006C002C0098071C011A0122
:103BF000330133016301E300C308C6093C07000039
:103C000000000000000000000C001C00100010006C
:103C10000800040000000000000000000000000098
:103C20000000000000000000000000000000000094
:103C300000000000000000000004000200018000FD
:103C400080004000400020002000200020002000D4
:103C500020002000400040008000800000010002A1
:103C60000004000000000000020004000800100032
:103C700010002000200040004000400040004000B4
:103C80004000400020002000100010000800040048
:103C90000200000000000000000000000000000022
:103CA0004000C0004000460C4E0FD001F0015E0FF6
:103CB000460C4000400040000000000000000000F2
:103CC00000000000000000000000000000000000F4
:103CD000000040004000400040004000FE0F400057
:103CE00040004000400040000000000000000000D4
:103CF00000000000000000000000000000000000C4
:103D000000000000000000000000000000000000B3
:103D100000000000000000000C001C00100010005B
:103D20000800040000000000000000000000000087
:103D3000000000000000000000000000FE0700007E
:103D40000000000000000000000000000000000073
:103D50000000000000000000000000000000000063
:103D60000000000000000000000000000000000053
:103D700000000000000000001C001C001C000000EF
:103D80000000000000000000000400060002000324
:103D90000001000180008000400040006000200021
:103DA000200010001000080008000C0004000600AD
:103DB0000200000000000000000000000000F00011
:103DC00098010C030C030606060606060606060600
:103DD0000606060606060C030C039801F000000018
:103DE0000000000000000000000000000000400093
:103DF0007C006000600060006000600060006000A7
:103E0000600060006000600060006000FC03000073
:103E10000000000000000000000000000000F800AA
:103E20008401020306030603000300018001C000B1
:103E3000600020001000080204020602FE030000D9
:103E400000000000000000000000000000007800FA
:103E5000C6008601860180018001C00070008001DB
:103E6000000100030003060306038601F8000000BA
:103E700000000000000000000000000000008001C1
:103E80008001C001A001A001900188018801840186
:103E90008201FE0F8001800180018001E0070000A7
:103EA0000000000000000000000000000000FC0313
:103EB00004000400040004000400F4008C01040366
:103EC000000300030603060382018401F8000000DA
:103ED0000000000000000000000000000000E00101
:103EE00018030C030C0004000600E60116030E067E
:103EF00006060606060604060C021803F00000007B
:103F00000000000000000000000000000000F807B2
:103F10000C06040204010001000180008000400042
:103F20004000400060006000600060006000000031
:103F30000000000000000000000000000000F80188
:103F40000C030606060606060C021C03F000C80158
:103F50000C0306060606060606060C03F001000022
:103F60000000000000000000000000000000F00061
:103F70000C010C03060206060606060606078C065A
:103F800078060006000300030C018C017800000095
:103F90000000000000000000000000000000000021
:103FA0000000000000000000E000E000E000000071
:103FB0000000000000000000E000E000E000000061
:103FC00000000000000000000000000000000000F1
:103FD0000000000000000000600060000000000021
:103FE00000000000000000000000600060004000D1
:103FF000200020000000000000000000000400027B
:1040000000018000400020001000080004000800AB
:1040100010002000400080000001000200040000A9
:104020000000000000000000000000000000000090
:104030000000000000000000FE070000000000007B
:10404000FE0700000000000000000000000000006B
:104050000000000000000000000000000400080054
:104060001000200040008000000100020004000257
:104070000001800040002000100008000400000043
:104080000000000000000000000000000000E0034D
:104090001806040C040C0C0C0C0C000780014000EA
:1040A0004000400000000000E000E000E0000000F0
:1040B000000000000000000000000000E000180305
:1040C0000C02CC0564056605A605B604B604B60464
:1040D000B604B602E4010C040C021803F000000060
:1040E0000000000000000000000000000000600070
:1040F00060005000D0009000900088008801080106
:10410000F801040304030402020202060F0F000078
:104110000000000000000000000000000000FE00A1
:104120008C030C030C030C030C038C01FC000C032C
:104130000C020C060C060C060C060C03FE0100001B
:104140000000000000000000000000000000E0038C
:1041500018030C060C040404060006000600060002
:104160000600060006040C040C021803F000000010
:1041700000000000000000000000000000007F00C0
:104180008C010C030C030C060C060C060C060C062A
:104190000C060C060C060C030C038C017F000000BF
:1041A0000000000000000000000000000000FF030D
:1041B000060306040604060086008600FE0086004C
:1041C000860086000600060406040602FF030000BF
:1041D0000000000000000000000000000000FF03DD
:1041E000060306040604060086008600FE0086001C
:1041F0008600860006000600060006001F0000007C
:104200000000000000000000000000000000F000BE
:1042100018010C020C02040206000600060006004B
:10422000C60F060306030C030C031803F00000007E
:1042300000000000000000000000000000000F0F60
:10424000060606060606060606060606FE07060615
:104250000606060606060606060606060F0F0000F8
:104260000000000000000000000000000000FC034F
:10427000600060006000600060006000600060003E
:10428000600060006000600060006000FC030000EF
:104290000000000000000000000000000000F8071F
:1042A000C000C000C000C000C000C000C000C0000E
:1042B000C000C000C000C000C000C000C000C600F8
:1042C00066003C0000000000000000000000CF037A
:1042D0008601C60046002600160036002E006E003D
:1042E0004600C60086008601060106038F0700000F
:1042F00000000000000000000000000000001F009F
:10430000060006000600060006000600060006007D
:10431000060006000600060406040602FF0300006D
:10432000000000000000000000000000000007077F
:10433000860386038E038E034E034E034A035A03FD
:104340005A033A0332033203320312038707000091
:1043500000000000000000000000000000008E0FC0
:104360000C021C021C023402340264026402440285
:10437000C402840284038403040304031F020000B4
:104380000000000000000000000000000000F0003D
:1043900098010C030C02060606060606060606062B
:1043A0000606060606060C020C039801F000000043
:1043B0000000000000000000000000000000FF00FE
:1043C0000603060606060606060606068603FE0021
:1043D0000600060006000600060006001F0000009A
:1043E0000000000000000000000000000000F000DD
:1043F00098010C030C0206060606060606060606CB
:104400000606060676064C02CC039801F0008007EB
:104410000003000000000000000000000000FF0199
:10442000060306060606060606060603FE00460006
:10443000C600860086010603060306060F0E00006E
:104440000000000000000000000000000000F80272
:104450000C030602060206000E003C00F800E00312
:10446000800300070206020606060C03F0010000A6
:104470000000000000000000000000000000FE0737
:104480006204610861086000600060006000600014
:10449000600060006000600060006000F8010000E3
:1044A00000000000000000000000000000001E07E7
:1044B0000C020C020C020C020C020C020C020C028C
:1044C0000C020C020C020C020C021801F00000009D
:1044D00000000000000000000000000000000F07C6
:1044E0000602040104010C010C01880088009800F8
:1044F00098005000500070003000200020000000A4
:104500000000000000000000000000000000F70EA6
:10451000620442044604460464026402E402E402C3
:104520009C029C0198019801880188008800000085
:1045300000000000000000000000000000009E07D6
:104540000C01080118019000B0006000200060001C
:104550006000D00090008801080104038E0700006D
:1045600000000000000000000000000000000F0F2D
:10457000060404020C0208011801B800B000700023
:10458000600060006000600060006000F8010000F2
:104590000000000000000000000000000000FC0718
:1045A0000C02060302018001800040004000200050
:1045B00020001000180008040C040402FE03000090
:1045C0000000000000000000E003200020002000A8
:1045D00020002000200020002000200020002000DB
:1045E00020002000200020002000200020002000CB
:1045F000E0030000000000000000000004000400D0
:1046000008000800100010001000200020004000EA
:104610004000C00080008000000100010002000294
:1046200000020004000000007C0040004000400048
:10463000400040004000400040004000400040007A
:10464000400040004000400040004000400040006A
:104650007C000000000060009000080100000000E5
:10466000000000000000000000000000000000004A
:10467000000000000000000000000000000000003A
:10468000000000000000000000000000000000002A
:10469000000000000000000000000000000000001A
:1046A000000000000000000000000000000000000A
:1046B0000000FF0F00000000180060000000000074
:1046C00000000000000000000000000000000000EA
:1046D00000000000000000000000000000000000DA
:1046E00000000000000000000000000000000000CA
:1046F0000000000000000000F0010C030C030003A8
:10470000E0031C030E03060306038E0B7C0E000061
:1047100000000000000000000000000008000E0083
:104720000C000C000C000C00CC013C031C060C0619
:104730000C060C060C060C060C021C03E40100001F
:104740000000000000000000000000000000000069
:104750000000000000000000F0008C018C018601C8
:1047600006000600060006020C020C01F000000024
:104770000000000000000000000000000002C00374
:10478000000300030003000378038C030C030603FB
:10479000060306030603060304038C0778010000E2
:1047A0000000000000000000000000000000000009
:1047B0000000000000000000E001180308020C06E1
:1047C0000C06FC070C000C0018041802E0010000A5
:1047D0000000000000000000000000000000C00316
:1047E0006006300630003000FE013000300030003E
:1047F000300030003000300030003000FC0100009C
:1048000000000000000000000000000000000000A8
:104810000000000000000000F007D8068C018C01A9
:104820008C019801F8000C00FC00CC030603060381
:104830008E03F800000000000000000008000E00D9
:104840000C000C000C000C00EC011C030C030C030E
:104850000C030C030C030C030C030C039E07000059
:1048600000000000000000000000000000006000E8
:1048700060000000000040007C00600060006000FC
:10488000600060006000600060006000FC030000E9
:104890000000000000000000000000000000C00157
:1048A000C001000000000001F001800180018001D2
:1048B00080018001800180018001800180018001F0
:1048C000CC007C00000000000000000008000E008A
:1048D0000C000C000C000C008C038C008C004C00B5
:1048E0006C005C008C008C010C010C039E07000026
:1048F00000000000000000000000000040007C00FC
:1049000060006000600060006000600060006000A7
:10491000600060006000600060006000FC03000058
:104920000000000000000000000000000000000087
:1049300000000000000000003707EE06660666066D
:10494000660666066606660666066606FF0F0000D1
:104950000000000000000000000000000000000057
:104960000000000000000000EE011C030C030C031B
:104970000C030C030C030C030C030C039E07000038
:104980000000000000000000000000000000000027
:104990000000000000000000F00098010C03060673
:1049A00006060606060606060C030C03F0000000C9
:1049B00000000000000000000000000000000000F7
:1049C0000000000000000000EE011C030C060C06B5
:1049D0000C060C060C060C060C031C03EC010C0068
:1049E0000C003E000000000000000000000000007D
:1049F000000000000000000078028C030C03060396
:104A0000060306030603060304038C03780300036E
:104A10000003C007000000000000000000000000CC
:104A200000000000000000009F0358063806180030
:104A3000180018001800180018001800FF000000E7
:104A40000000000000000000000000000000000066
:104A50000000000000000000F0031C030C020C0228
:104A60003800F000C003040304038C03FC010000C1
:104A70000000000000000000000000000000000036
:104A80002000200030003000FE01300030003000F7
:104A9000300030003000300030023002E001000011
:104AA0000000000000000000000000000000000006
:104AB00000000000000008028E030C030C030C032E
:104AC0000C030C030C030C030C039C07780100007F
:104AD00000000000000000000000000000000000D6
:104AE00000000000000000001E070C020801080181
:104AF00018019000B000B0006000600020000000CD
:104B000000000000000000000000000000000000A5
:104B10000000000000000000F70E6204460464027A
:104B20006402EC029C0198019801980108000000C1
:104B30000000000000000000000000000000000075
:104B40000000000000000000BC0718011001B000C8
:104B500060006000E0009000080108039E0700006C
:104B60000000000000000000000000000000000045
:104B700000000000000000009E0708010801080175
:104B800090009000B00060006000600020002000F5
:104B900024001C00000000000000000000000000D5
:104BA0000000000000000000FC018401C40044007B
:104BB000600020003000180208020C03FC01000015
:104BC0000000000000000000000380008000800062
:104BD00080008000800080008000400020004000B5
:104BE00080008000800080008000800080008000C5
:104BF0000003000040004000400040004000400032
:104C000040004000400040004000400040004000A4
:104C10004000400040004000400040004000400094
:104C200040004000000000000C00100010001000C8
:104C300010001000100010001000200040002000A4
:104C400010001000100010001000100010001000E4
:104C50000C00000000001C002204C20480030000BD
:104C60000000000000000000000000000000000044
:104C70000000000000000000000000000000000034
:104C80000000000000000000000000000000000024
:104C90000000000000000000000000000000000014
:104CA0000000000000000000000000000000000004
:104CB00000000000000000000000000000000000F4
:104CC0000000000000000000000000000000C00123
:104CD000C001C001C001C001C001C001800080004E
:104CE0008000800080008000800000000000000044
:104CF00000008001C003C00380010000000000002C
:104D000000000000000000000000E01CE01CF01E9D
:104D1000700E38071803080184000000000000002E
:104D20000000000000000000000000000000000083
:104D30000000000000000000000000000000000073
:104D40000000000000000000000000000000000063
:104D500020102010201020102010FE7FFE7F100851
:104D6000100810081008100810081008FE7FFE7FB9
:104D700008040804080408040804000000000000F7
:104D80000000000000000000000000000001000121
:104D9000C0076019103118311839183938017001FD
:104DA000E001C0038007000F001D003900311C31F5
:104DB0001C310C310C11180DE0070001000100013D
:104DC00000000000000000000000000000000000E3
:104DD0001C1036186308630C6304630463026302E7
:104DE0006301361D9C3780228063406340632063EB
:104DF0002063306310221836081C000000000000F9
:104E000000000000000000000000000000000000A2
:104E1000F00098018C018C018C018C018C00CC007D
:104E20007800183E1C083608320863046304C30483
:104E3000C303834306438E26781C00000000000055
:104E4000000000000000000000001C003C003C00CE
:104E50003000300010000C000600000000000000D0
:104E60000000000000000000000000000000000042
:104E70000000000000000000000000000000000032
:104E800000000000000000000000004000200010B2
:104E90000008000C0004000600030003000380016A
:104EA0008001800180018001800180018001000378
:104EB0000003000300060006000C0008001000209C
:104EC0000040000000000000000002000400080094
:104ED0001000300020006000C000C000C000800151
:104EE0008001800180018001800180018001C0007B
:104EF000C000C00060006000300010000800040026
:104F0000020000000000000000000000000000009F
:104F10000000000000018003800300011C713C7947
:104F2000783DC0070001C007783D3C791C71000145
:104F300080038003800100000000000000000000EA
:104F40000000000000000000000000000000000061
:104F5000000000000000000100010001000100014C
:104F600000010001FC7F00010001000100010001BF
:104F7000000100010000000000000000000000002F
:104F80000000000000000000000000000000000021
:104F90000000000000000000000000000000000011
:104FA0000000000000000000000000000000000001
:104FB000000000001C003C003C00300030001000ED
:104FC0000C000600000000000000000000000000CF
:104FD00000000000000000000000000000000000D1
:104FE00000000000FE7F0000000000000000000044
:104FF00000000000000000000000000000000000B1
:1050000000000000000000000000000000000000A0
:105010000000000000000000000000000000000090
:105020000000000000000000000000000000000080
:10503000000018003C003C001800000000000000C8
:1050400000000000000000000000004000600020A0
:105050000030001000180008000C000400060002D8
:105060000003000180018000C000400060002000BB
:1050700030001000180008000C00040006000200B8
:105080000000000000000000000000000000000020
:10509000C007600C30181830183018200C600C60F5
:1050A0000C600C600C600C600C600C600C601820D4
:1050B000183018303018600CC007000000000000E5
:1050C00000000000000000000000000000000000E0
:1050D00000018001F80180018001800180018001D0
:1050E00080018001800180018001800180018001B8
:1050F000800180018001C003F81F00000000000053
:10510000000000000000000000000000000000009F
:10511000E007101C0818043004300C300C3000304C
:105120000018000800040002000180004000202058
:10513000102008200430FC1FFC1F000000000000AD
:10514000000000000000000000000000000000005F
:10515000E003180E0C0C0C180C180C180018000C9E
:105160000006C003000E00180010003000300C30A4
:105170000C300C100C18180CE003000000000000AC
:10518000000000000000000000000000000000001F
:10519000000C000E000E000F800E800E400E600E00
:1051A000200E100E100E080E040E040EFE7F000ED0
:1051B000000E000E000E000E000EC07F000000006A
:1051C00000000000000000000000000000000000DF
:1051D000F03FF03F10001000100008000800C80762
:1051E000280C1818081000300030003000300C3047
:1051F0000C3004180418080CF00300000000000034
:10520000000000000000000000000000000000009E
:10521000800FC010203010301800180008000C005B
:105220008C0F6C183C301C600C600C600C600C60C7
:105230001860182030306018C0070000000000001F
:10524000000000000000000000000000000000005E
:10525000F83FF83F1C100C08040804040004000286
:105260000002000100010001800080008000C000F9
:10527000C000C000C000C000C0000000000000006E
:10528000000000000000000000000000000000001E
:10529000E007300C18180C300C300C301C3038186B
:1052A0007008E007B007180E0C1C063806300630F0
:1052B000063006300C18180CE00300000000000057
:1052C00000000000000000000000000000000000DE
:1052D000E00318040C080C180610063006300630DF
:1052E000063006380C3C1836F03100300018001833
:1052F00000180C0C0C060C03F0010000000000006C
:10530000000000000000000000000000000000009D
:10531000000000000000000000000000000080010C
:10532000C003C00380010000000000000000000076
:1053300000008001C003C0038001000000000000E5
:10534000000000000000000000000000000000005D
:105350000000000000000000000000000000C0008D
:10536000C00000000000000000000000000000007D
:10537000000000000000C000C0008000800040006D
:1053800040000000000000000000000000000020BD
:10539000001000080004000600038001C000600047
:1053A000300018000C00180030006000C0008001C0
:1053B00000030006000400080010002000000000A8
:1053C00000000000000000000000000000000000DD
:1053D0000000000000000000000000000000FE7F50
:1053E00000000000000000000000FE7F0000000040
:1053F00000000000000000000000000000000000AD
:105400000000000000000000000000000000040098
:105410000800100020006000C000800100030006AA
:10542000000C001800300018000C0006000380017A
:10543000C000600020001000080004000000000010
:105440000000000000000000000000000000C00795
:105450003018083008600C601C601C601C60003054
:10546000001C000600018000800080008000000019
:1054700000008001C003C0038001000000000000A4
:10548000000000000000000000000000000000001C
:10549000C0076018103018200C2F8C4D864CC64C5D
:1054A000C64C664C66446644662666266615CC1C69
:1054B0000C40082018303018C00700000000000021
:1054C00000000000000000000000000000000001DB
:1054D000C001C001C001400160032003200320037C
:1054E0003006100610061006F80F080C080C080C01
:1054F0000C0C0418041806181F7C000000000000A3
:10550000000000000000000000000000000000009B
:10551000FE07181C183818301830183018301818B2
:10552000180CF80718181830182018601860186040
:105530001860186018301818FE0F000000000000F6
:10554000000000000000000000000000000000005B
:10555000C0276038103018200C400C4004000600B2
:1055600006000600060006000600060006000C40C5
:105570000C400C2018303018C0070000000000005C
:10558000000000000000000000000000000000001B
:10559000FE03180E181818301830183018601860EC
:1055A000186018601860186018601860186018306B
:1055B000183018101818180EFE0300000000000024
:1055C00000000000000000000000000000000000DB
:1055D000FE3F1830182018601840180018081808E6
:1055E000180CF80F180C18081808180018001800E4
:1055F0001840184018201830FE3F0000000000003E
:10560000000000000000000000000000000000009A
:10561000FE7F1870184018C0188018001810181055
:105620001818F81F1818181018101800180018006B
:1056300018001800180018007E000000000000008C
:10564000000000000000000000000000000000005A
:10565000C013701C101018100C200C200400060041
:10566000060006000600060006FC063006300C3078
:105670000C30183018303008C0070000000000005F
:10568000000000000000000000000000000000001A
:105690003F7E0C180C180C180C180C180C180C1851
:1056A0000C180C18FC1F0C180C180C180C180C18E3
:1056B0000C180C180C180C183F7E0000000000009D
:1056C00000000000000000000000000000000000DA
:1056D000F81F80018001800180018001800180012C
:1056E00080018001800180018001800180018001B2
:1056F0008001800180018001F81F0000000000008F
:105700000000000000000000000000000000000099
:10571000E07F000600060006000600060006000600
:105720000006000600060006000600060006000649
:105730000006000600060006000600060E060E0320
:105740008E01FC00000000000000000000000000CE
:105750007E7C1818180818041806180218019801F9
:105760009801D801B803380318071806180E180C4A
:10577000181C1818183018307EFC000000000000BB
:105780000000000000000000000000000000000019
:105790007E001800180018001800180018001800E3
:1057A0001800180018001800180018001800180039
:1057B0001840184018201830FE3F0000000000007C
:1057C00000000000000000000000000000000000D9
:1057D0001FF81C381C381C381C3C34343434343426
:1057E000343674326432643264326431C431C43168
:1057F000C431C430C43084309FFC0000000000007D
:105800000000000000000000000000000000000098
:105810001F7C1C103C103410341074106410E41001
:10582000C410C41184118413041304170416041E35
:10583000041C041C041C04181F18000000000000B5
:105840000000000000000000000000000000000058
:10585000C003300C181808100C300C3006600660BD
:1058600006600660066006600660066006600C2042
:105870000C3008101818300CC003000000000000A5
:105880000000000000000000000000000000000018
:10589000FE0F18181830186018601860186018602B
:1058A00018301818F80F1800180018001800180001
:1058B00018001800180018007E000000000000000A
:1058C00000000000000000000000000000000000D8
:1058D000C003300C18180C100C300C200660066049
:1058E0000660066006600660066006600660E461A9
:1058F0002C331C321816300EC007004C007C0038C8
:105900000000000000000000000000000000000097
:10591000FE07181C183818301830183018301818AE
:10592000180CF80798031803180718061806180E1D
:10593000180C180C181C18187E78000000000000C5
:105940000000000000000000000000000000000057
:10595000E027303818300C200C200C000C00180008
:105960007800E003800F001E0038007000600460C3
:105970000460086018303818C80F000000000000EC
:105980000000000000000000000000000000000017
:10599000FC3F8C2184618241824180018001800131
:1059A00080018001800180018001800180018001EF
:1059B0008001800180018001E007000000000000FC
:1059C00000000000000000000000000000000000D7
:1059D0003F7C0C100C100C100C100C100C100C1048
:1059E0000C100C100C100C100C100C100C100C10D7
:1059F0000C100C1008083804E00300000000000040
:105A00000000000000000000000000000000000096
:105A10003EF81820182018203010301030103010A8
:105A2000600860086008E00CC004C004C004800383
:105A300080038003800300010001000000000000DB
:105A40000000000000000000000000000000000056
:105A5000DFF38661862186218C210C218C238C1317
:105A60008C138C134C1358125816580E380E380ECF
:105A7000380E300C10041004100400000000000068
:105A80000000000000000000000000000000000016
:105A90007E3E180838083004300470026002E001CD
:105AA000C001C0018001800340034007200620069A
:105AB000100C100C081808183E7C000000000000B4
:105AC00000000000000000000000000000000000D6
:105AD0007E7C1C10181018083008300C700460040C
